:100000000C9464160C9495160C9495160C949516F5
:100010000C9495160C9495160C9495160C949516B4
:100020000C9495160C9495160C9495160C949516A4
:100030000C9495160C9495160C9495160C94951694
:100040000C9495160C94788D0C9495160C9495162A
:100050000C9495160C9495160C948F980C94AAE514
:100060000C9495160C94AE330C94A4330C94951602
:100070000C9495160C9495160C9495160C94951654
:100080000C9495160C9495160C9495160C94951644
:100090000C9495160C9495160C9495160C94951634
:1000A0000C9495160C9495160C9495160C94951624
:1000B0000C9495160C9495160C9495160C94951614
:1000C0000C9495160C9495160C9495160C94951604
:1000D0000C9495160C9495160C9495160C949516F4
:1000E0000C949516DD30E230E730F130FB3074319E
:1000F00005310D3115311F312931333142314C3148
:100100007431563160316A31DAE4DDE4CCE4D0E4B4
:10011000D4E414E5E1E4E5E4EBE4EFE4F3E4F9E44A
:10012000FDE401E514E507E50BE50FE5084AD73BDB
:100130003BCE016E84BCBFFDC12F3D6C74319ABDB6
:1001400056833DDA3D00C77F11BED9E4BB4C3E91DA
:100150006BAAAABE000000803F05A84CCDB2D44EC9
:10016000B93836A9020C50B9918688083CA6AAAACB
:100170002ABE000000803F000C9445AA0C944A3F20
:100180000C9453BC0C942F500C94043F0C94EFE44B
:100190000C9442310C946CB10C94CAB00C946ABEAD
:1001A0000C947FB10C942EB30C94F5330C94A1BC39
:1001B0000C9438B70C9405310C94E1E40C94926DD6
:1001C0000C94D4E40C9485B10C94EBE40C94006B87
:1001D0000C940DF10C9452C70C94F66F0C942931C9
:1001E0000C94E5E40C9489430C9447AA0C94DDE448
:1001F0000C9436F00C94E7300C94DB450C94806D35
:100200000C94FEBB0C9401E50C942D720C941470AC
:100210000C94273F0C9433310C9415720C940FAC52
:100220000C9415310C9409BC0C94DB720C94746D15
:100230000C945A6B0C94CE6A0C945FBC0C946A318B
:100240000C94E76F0C94DD440C94DD300C9473BC7B
:100250000C94F9E40C940FCA0C94DAE40C944DBCA1
:100260000C949B6D0C9447BC0C94B7B00C940FE5A8
:100270000C94FDE40C9423700C941B6B0C9407E518
:100280000C9460B10C9459BC0C947DBC0C9400BCD3
:100290000C9469BC0C94B5B90C9405700C94A7C768
:1002A0000C947A6D0C94E5440C94A3C70C946DBD2A
:1002B0000C9482BC0C9474310C949B6B0C94FF7165
:1002C0000C9404B10C9449AA0C9458B10C943B5072
:1002D0000C948B970C94866D0C9478BC0C94E76A04
:1002E0000C9411BC0C94563F0C944D470C944DAAA1
:1002F0000C94F0710C94DE540C9432500C94FCBBB2
:100300000C94FB300C94736B0C94E2300C94626D83
:100310000C9466BD0C94416B0C94C06A0C940872EA
:100320000C9448720C94BCC70C94D9BB0C941672F4
:100330000C944DB80C948C6B0C94DB440C94E3B08F
:100340000C945DAD0C94F3E40C941F310C946EBCD2
:100350000C944C310C944BAA0C94B8C70C942E6B93
:100360000C94C8BF0C94DF440C9414E50C94F13049
:100370000C9464BC0C9456310C94CCE40C94FABBF1
:100380000C948C6D0C940BE50C94DC6F0C9419722E
:100390000C9460310C94E5B00C94686D0C94AC54E2
:1003A0000C94F8BB0C9478B00C94DFC90C948BB10E
:1003B0000C94C0C70C940D310C946E6D0C94D0E469
:1003C0004E414E494E495459494E46CDCCCC3D0A3A
:1003D000D7233C17B7D13877CC2B329595E6241F1D
:1003E000B14F0A000020410000C84200401C4620D6
:1003F000BCBE4CCA1B0E5AAEC59D7400407A10F3A9
:100400005A00A0724E18090010A5D4E80000E87642
:1004100048170000E40B54020000CA9A3B00000099
:10042000E1F505000080969800000040420F0000B2
:1004300000A08601000000102700000000E8030073
:100440000000006400000000000A0000000000013D
:1004500000000000002C76D888DC674F0823DFC13D
:10046000DFAE59E1B1B796E5E3E453C63AE65199F8
:100470007696E8E6C28426EB898C9B62ED407C6F21
:10048000FCEFBC9C9F40F2BAA56FA5F490055A2AD8
:10049000F75C936B6CF9676DC11BFCE0E40D47FEE4
:1004A000F520E6B500D0ED902E03009435770500D9
:1004B00080841E080000204E0A000000C80C333360
:1004C00033330F986E12831141EF8D2114893BE66F
:1004D0005516CFFEE6DB18D1844B381BF77C1D90F8
:1004E0001DA4BBE424203284725E228100C9F12461
:1004F000ECA1E53D27434F4D4D554E4943415449ED
:100500004F4E0044525952554E004552524F52538D
:1005100000494E464F004543484F00536C65657097
:100520002E2E2E005A2050726F6265205061737417
:10053000204265640A005A2050726F626520506143
:10054000737420426564004D65736820706F696E36
:1005500074206F7574206F662072616E67650A0083
:10056000436C69636B20746F20526573756D652EE3
:100570002E2E004E6F204D6F76652E00456E642046
:1005800066696C65206C6973740A00426567696E00
:100590002066696C65206C6973740A004E6F206D6B
:1005A000656469610A00286E6F2066696C652900C0
:1005B00043757272656E742066696C653A200053EB
:1005C00044207072696E74696E6720627974652068
:1005D000004E6F74205344207072696E74696E67A8
:1005E0000A0044656C6574696F6E206661696C65AC
:1005F000642C2046696C653A200046696C6520646D
:10060000656C657465643A00256979202569642004
:100610002569682025696D20256973005072696E0F
:10062000742074696D653A20006F66660044454227
:1006300055473A004D3131322053687574646F77F5
:100640006E004D31313320530042656420436F6F9B
:100650006C696E672E2E2E004265642048656174B9
:10066000696E672E2E2E00336420426172204F4641
:10067000462E004348414D4245525F54454D50453A
:1006800052415455524500424142595354455050ED
:10069000494E470041524353004D4F54494F4E5F1E
:1006A0004D4F44455300544845524D414C5F5052C4
:1006B0004F54454354494F4E004C4F4E475F4649B7
:1006C0004C454E414D45004155544F5245504F52B7
:1006D000545F53445F535441545553005344434172
:1006E00052440050524F4D50545F535550504F524A
:1006F0005400454D455247454E43595F5041525372
:10070000455200434153455F4C494748545F42526C
:10071000494748544E45535300544F47474C455F53
:100720004C494748545300534F4654574152455F34
:10073000504F574552004255494C445F5045524333
:10074000454E54004C4556454C494E475F44415434
:1007500041005A5F50524F42450052554E4F55543A
:10076000004155544F4C4556454C005052494E544B
:100770005F4A4F420050524F475245535300415534
:10078000544F5245504F52545F54454D5000564FB0
:100790004C554D45545249430042494E4152595FD0
:1007A00046494C455F5452414E53464552005345CD
:1007B0005249414C5F584F4E5F584F46460046499C
:1007C000524D574152455F4E414D453A4D61726C15
:1007D000696E20322E302E372E3220284A616E204C
:1007E000323320323032312032313A30343A3531FE
:1007F0002920534F555243455F434F44455F55525F
:100800004C3A68747470733A2F2F67697468756214
:100810002E636F6D2F4D61726C696E4669726D77D4
:100820006172652F4D61726C696E2050524F544F4A
:10083000434F4C5F56455253494F4E3A312E30206C
:100840004D414348494E455F545950453A33642021
:100850004261722045585452554445525F434F55AA
:100860004E543A3120555549443A636564653261C6
:1008700032662D343161322D343734382D396231BE
:10088000322D6335356336326633363766660A0095
:100890002F2F20004D31343520533C696E6465782C
:1008A0003E206F7574206F662072616E6765202828
:1008B000302D31290A00416363656C65726174698A
:1008C0006F6E3A2050003F4A206F7574206F66208B
:1008D00072616E67652028302E303120746F2030B1
:1008E0002E33290A0020204D61783A200020204D27
:1008F000696E3A2000536F667420656E6473746F7E
:1009000070733A200046523A0020466C6F773A20C6
:100910000020643A0020693A0020703A00496E765F
:10092000616C69642065787472756465720A00642C
:1009300069730043290A0061626C656420286D694F
:100940006E2074656D702000436F6C642065787450
:1009500072756465732061726520004D34323120F8
:10096000696E636F727265637420706172616D6528
:100970007465722075736167650A004F66667365FA
:100980007473204170706C696564004572723A201E
:10099000546F6F206661722100546F6F2066617220
:1009A0002066726F6D207265666572656E63652084
:1009B000706F696E740A00454550524F4D204F4B81
:1009C0000A003F5A206F7574206F662072616E674F
:1009D000652028003F59206F7574206F6620726172
:1009E0006E676520282D0020746F20003F58206F0F
:1009F0007574206F662072616E676520282D005027
:100A0000726F6265204F6666736574205800446F8C
:100A10006E65207072696E74696E672066696C65B8
:100A20000A004D3737004D333100160511050A0510
:100A30000305F5044572726F722077726974696EEE
:100A40006720746F20454550524F4D210A004D34A8
:100A50003130004D313132004D3130380053544F78
:100A6000505045442E20005072696E746572207398
:100A7000746F707065642064756520746F20657292
:100A8000726F72732E2046697820746865206572D3
:100A9000726F7220616E6420757365204D3939392B
:100AA00020746F20726573746172742E20285465EF
:100AB0006D706572617475726520697320726573FB
:100AC00065742E20536574206974206166746572A4
:100AD0002072657374617274696E67290A004E6FC3
:100AE00020436865636B73756D2077697468206C4B
:100AF000696E65206E756D6265722C204C61737431
:100B0000204C696E653A2000636865636B73756D90
:100B1000206D69736D617463682C204C617374205F
:100B20004C696E653A20004C696E65204E756D62A9
:100B30006572206973206E6F74204C617374204C51
:100B4000696E65204E756D6265722B312C204C618B
:100B50007374204C696E653A20004D31313000537A
:100B6000442072656164206572726F720A002121EF
:100B7000204B494C4C206361757365642062792079
:100B80004B494C4C20627574746F6E2F70696E0AFD
:100B9000002121204B494C4C206361757365642012
:100BA000627920746F6F206D75636820696E616370
:100BB000746976652074696D65202D206375727285
:100BC000656E7420636F6D6D616E643A20006275AE
:100BD00073793A2070617573656420666F7220695D
:100BE0006E7075740A00627573793A20706175735E
:100BF000656420666F7220757365720A0062757392
:100C0000793A2070726F63657373696E670A004D7D
:100C1000656469612052656D6F766564004D656439
:100C2000696120496E73657274656400000000009C
:100C30000000000000000000000052430000874355
:100C40000000484353657474696E67732053746F72
:100C50007265640053657474696E67732053746FB2
:100C600072656420280041425300504C41004661A7
:100C70006E205370656564004E6F7A7A6C65004D26
:100C800061696E00436F6F6C646F776E00507265C0
:100C900068656174202400466C6F77002568753A9A
:100CA00025303268750025303268753A2530326853
:100CB000750053440020202020202020006A0C666C
:100CC0000C68747470733A2F2F6D61726C696E6664
:100CD000772E6F72670020322E302E372E32002092
:100CE00020506C616E6E65724275666665724279FF
:100CF0007465733A20002046726565204D656D6FFE
:100D000072793A2000436F6D70696C65643A204ACD
:100D1000616E20323320323032310A00204C617350
:100D20007420557064617465643A20323032302D1D
:100D300031302D3135207C20417574686F723A2036
:100D4000286E6F6E652C2064656661756C74206317
:100D50006F6E666967290A00322E302E372E320AEE
:100D6000004D61726C696E0020536F66747761721A
:100D7000652052657365740A002057617463686466
:100D80006F672052657365740A002042726F776E38
:100D9000206F75742052657365740A00204578745D
:100DA00065726E616C2052657365740A00506F77CE
:100DB000657255700A006175746F25632E67004770
:100DC00032385859004D31303031006572726F72CF
:100DD0002077726974696E6720746F2066696C652C
:100DE0000A00446F6E6520736176696E67206669DC
:100DF0006C652E0A004D323900456E6473746F7055
:100E00007300255320256320256320256320256357
:100E100000656E6473746F7073206869743A2000A3
:100E20001000600350012C0190012201D001180133
:100E300010020E0170020401E002FA006003F000EB
:100E40000004E600B004DC00A005D200B006C80033
:100E50000008BE00A009B400800BAA00D00DA000BD
:100E600090109600C0138C0070178200901B7800C1
:100E700010206E00C0246400E02D500080353C003E
:100E8000A03A2800A03D1400003F0000A03FECFF66
:100E90007C3C3E5E2B3D3F2F5B5D3B2C2A225C0061
:100EA00000000000010204040000001C1C0C0404EB
:100EB000040201000000000004081000000000000F
:100EC000456E636C6F737572650046696C2E2044C5
:100ED00069612E004520696E206D6DC2B3002074DB
:100EE0006F6F206C6F6E6720657874727573696FB1
:100EF0006E2070726576656E7465640A0020636F9B
:100F00006C6420657874727573696F6E2070726599
:100F100076656E7465640A00DB0FC93F45BCDA3F35
:100F20008FB30240FCF0274056946140FE4B9B403B
:100F300084A5D840E0231841346A5641E8599741C6
:100F400064DBD5416E271742B4B75542CE1A97429B
:100F5000C8AED542B5885A43D40684BFA65FA7BFA2
:100F60007443E0BF10B11AC01C2C58C0E8F697C0FB
:100F7000B849D6C04E4E17C124D355C1802497C15D
:100F8000A0B5D5C1121A17C244AE55C2781797C280
:100F90006CACD5C267885AC34F6666004F6E00506E
:100FA000726F6265205A204F6666736574004164F3
:100FB00076616E6365642053657474696E6773004F
:100FC00053746F72652053657474696E6773004C57
:100FD0006F61642053657474696E67730046616461
:100FE0006520486569676874004C6576656C2042C9
:100FF0006564004732380A47323900526573746FAE
:1010000072652044656661756C7473005072656822
:10101000656174202420436F6E66002053697A65F1
:101020003A200043616E6E6F74206F70656E20739E
:1010300075626469722000534420496E69742046C9
:1010400061696C0053442063617264206F6B0A0015
:101050006F70656E526F6F74206661696C65640AAB
:1010600000766F6C756D652E696E697420666169B6
:101070006C65640A004E6F20534420636172640AF9
:10108000004D3234004D3233202573006F70656E91
:10109000206661696C65642C2046696C653A2000A5
:1010A00046696C652073656C65637465640A004607
:1010B000696C65206F70656E65643A2000454E442A
:1010C00020535542524F5554494E450A0022207034
:1010D0006F73002220706172656E743A220053555E
:1010E00042524F5554494E452043414C4C20746167
:1010F000726765743A220053756263616C6C204FAD
:10110000766572666C6F77004578636565646564C3
:10111000206D617820535542524F5554494E452019
:1011200064657074683A310A0057726974696E6751
:1011300020746F2066696C653A200066726573687A
:1011400000646F696E67004E6F7720006F70656E88
:1011500000545249474745524544007A5F6D696ED5
:1011600000795F6D696E00785F6D696E0052657021
:101170006F7274696E6720656E6473746F7020732C
:1011800074617475730A00486F6D6520257325734B
:10119000257320466972737400486F6D696E67200D
:1011A0004661696C6564005761726E696E673A20CA
:1011B000486F6D696E672042756D7020446976696D
:1011C000736F72203C20310A000000484200004842
:1011D00042000080400202040000A0400000A04045
:1011E00000000040FFFFFF656E7175657565696EF3
:1011F000672022006F6B00526573656E643A2000B1
:1012000020573A00452025530023646566696E65C2
:101210002044454641554C545F004B6420004B69C7
:1012200020004B702000504944204175746F747544
:101230006E652066696E69736865642120507574F7
:1012400020746865206C617374204B702C204B698E
:1012500020616E64204B6420636F6E7374616E74E2
:10126000732066726F6D2062656C6F7720696E7493
:101270006F20436F6E66696775726174696F6E2E59
:10128000680A00504944204175746F74756E65207A
:101290006661696C6564212074696D656F75740A97
:1012A000000A20436C617373696320504944200A2B
:1012B00000204B643A2000204B693A2000204B70FC
:1012C0003A20002054753A2000204B753A20002027
:1012D0006D61783A2000206D696E3A200020643AF2
:1012E000200020626961733A200050494420417512
:1012F000746F74756E652073746172740A0050495E
:1013000044204175746F74756E65206661696C6503
:1013100064212054656D7065726174757265207406
:101320006F6F20686967680A0050494420417574EE
:101330006F74756E6500504944204175746F747503
:101340006E65206661696C65642120426164206578
:1013500078747275646572206E756D6265720A00CC
:101360007C4D61726C696E7C002D2D2D2D2D2D0014
:10137000A10000006900A20000006300B0000000AE
:101380000900C10000004100C20000004100C3008C
:1013900000004100C40000004100C5000000410001
:1013A000C60000004145C70000004300C80000001F
:1013B0004500C90000004500CD0000004900D100F3
:1013C00000004E00D50000004F00D60000004F0086
:1013D000D70000007800DC0000005500DD000000B0
:1013E0005900E00000006100E10000006100E2003F
:1013F00000006100E30000006100E4000000610003
:10140000E50000006100E60000006165E700000003
:101410006300E80000006500E90000006500EA00E4
:1014200000006500EB0000006500EC0000006900B2
:10143000ED0000006900EE0000006900EF00000010
:101440006900F10000006E00F20000006F00F30080
:1014500000006F00F40000006F00F50000006F0056
:10146000F60000006F00F80000006F00F9000000B7
:101470007500FA0000007500FB0000007500FC001C
:1014800000007500FD0000007900FF0000007900F9
:101490000401000041000501000061000601000098
:1014A00043000701000063000C01000043000D0130
:1014B000000063000E01000044000F010000640002
:1014C0001101000064001901000065001A0100000C
:1014D00045001B01000065001F010000670030018E
:1014E00000004900310100006900410100004C008A
:1014F000420100006C00430100004E004401000066
:101500006E00480100006E005801000052005901B1
:10151000000072005A01000053005B0100007300DC
:101520005F010000730060010000530061010000D2
:1015300073006501000074006F01000075007C01FC
:1015400000007A007D0100005A007E0100007A0050
:10155000920100006600E3020000780022200000F3
:101560002E001E210000507822210000544D9021B1
:1015700000003C2D922100002D3EB0210000030010
:10158000BB21000004003C2200007E004822000035
:101590007E3D60220000213D612200003D0064226A
:1015A00000003C3D652200003E3DF12300000700A5
:1015B000A03000003D0021F301000200C2F4010050
:1015C0000500A2000000EC00B0000000DF00E40015
:1015D0000000E100F6000000EF00F7000000FD0051
:1015E000FC000000F500E3020000EB0087030000B0
:1015F000A5008F030000F40098030000F2009E0392
:101600000000E300A3030000F600A9030000F400BB
:10161000AC030000E000AD030000E300B1030000F4
:10162000E000B2030000E200B5030000E300B803ED
:101630000000F200BC030000E400BE030000E30071
:10164000C0030000F700C1030000E600C303000070
:10165000E500902100007F00922100007E001A2208
:101660000000E8001E220000F30088250000FF00B3
:1016700002300000A1000C300000A2000D3000007C
:10168000A3009B300000DE009C300000DF00A03093
:1016900000003D00A1300000A700A2300000B10012
:1016A000A3300000A800A4300000B200A530000064
:1016B000A900A6300000B300A7300000AA00A8309F
:1016C0000000B400A9300000AB00AA300000B50053
:1016D000AB300000B600AC300000B6DEAD3000002C
:1016E000B700AE300000B7DEAF300000B800B03059
:1016F0000000B8DEB1300000B900B2300000B9DE41
:10170000B3300000BA00B4300000BADEB5300000DB
:10171000BB00B6300000BBDEB7300000BC00B83004
:101720000000BCDEB9300000BD00BA300000BDDEF4
:10173000BB300000BE00BC300000BEDEBD3000008B
:10174000BF00BE300000BFDEBF300000C000C030B0
:101750000000C0DEC1300000C100C2300000C1DEA8
:10176000C3300000AF00C4300000C200C53000002C
:10177000C2DEC6300000C300C7300000C3DEC83080
:101780000000C400C9300000C4DECA300000C5003B
:10179000CB300000C600CC300000C700CD300000C8
:1017A000C800CE300000C900CF300000CA00D030E1
:1017B0000000CADED1300000CADFD2300000CB000A
:1017C000D3300000CBDED4300000CBDFD5300000BA
:1017D000CC00D6300000CCDED7300000CCDFD830D3
:1017E0000000CD00D9300000CDDEDA300000CDDFC2
:1017F000DB300000CE00DC300000CEDEDD3000004B
:10180000CEDFDE300000CF00DF300000D000E0305F
:101810000000D100E1300000D200E2300000D3002F
:10182000E3300000AC00E4300000D400E5300000FC
:10183000AD00E6300000D500E7300000AE00E83033
:101840000000D600E9300000D700EA300000D800E0
:10185000EB300000D900EC300000DA00ED30000081
:10186000DB00EF300000DC00F2300000A600F330B7
:101870000000DD00F4300000B3DEF7300000DCDEF5
:10188000FA300000A6DEFB300000A500FC300000AE
:10189000B000FD300000A400074E0000FB008651A0
:1018A0000000FC0043530000FA0064FF0000A400A5
:1018B00065FF0000A50066FF0000A60067FF0000AE
:1018C000A70068FF0000A80069FF0000A9006AFFE8
:1018D0000000AA006BFF0000AB006CFF0000AC0032
:1018E0006DFF0000AD006EFF0000AE006FFF000056
:1018F000AF0070FF0000B00071FF0000B10072FF88
:101900000000B20073FF0000B30074FF0000B400D9
:1019100075FF0000B50076FF0000B60077FF0000FD
:10192000B70078FF0000B80079FF0000B9007AFF27
:101930000000BA007BFF0000BB007CFF0000BC0081
:101940007DFF0000BD007EFF0000BE007FFF0000A5
:10195000BF0080FF0000C00081FF0000C10082FFC7
:101960000000C20083FF0000C30084FF0000C40029
:1019700085FF0000C50086FF0000C60087FF00004D
:10198000C70088FF0000C80089FF0000C9008AFF67
:101990000000CA008BFF0000CB008CFF0000CC00D1
:1019A0008DFF0000CD008EFF0000CE008FFF0000F5
:1019B000CF0090FF0000D00091FF0000D10092FF07
:1019C0000000D20093FF0000D30094FF0000D40079
:1019D00095FF0000D50096FF0000D60097FF00009D
:1019E000D70098FF0000D80099FF0000D9009AFFA7
:1019F0000000DA009BFF0000DB009CFF0000DC0021
:101A00009DFF0000DD009EFF0000DE009FFF000044
:101A1000DF00E5FF00005C00001C1F11111F00002B
:101A20000006191803130C00040E1F041C0000000C
:101A3000000E1315110E00001C10181705060500E6
:101A4000040A0A0A0A11110E0C12120C00000000FE
:101A5000001F1511151F000020520020204D3835A1
:101A6000312058005A2D50726F6265204F666673A0
:101A700065740020204D33303120500050494420FF
:101A800073657474696E67733A00204600204800DD
:101A900020204D3134352053004D617465726961E9
:101AA0006C2068656174757020706172616D657419
:101AB0006572733A002020473239205720490020B0
:101AC000204D3432302053004175746F20426564DC
:101AD000204C6576656C696E673A0020204D323087
:101AE00036205800486F6D65206F66667365743ADE
:101AF00000204A0020204D323035204200416476DB
:101B0000616E6365643A20423C6D696E5F73656720
:101B10006D656E745F74696D655F75733E20533CCF
:101B20006D696E5F66656564726174653E20543CE4
:101B30006D696E5F74726176656C5F66656564720F
:101B40006174653E204A3C6A756E635F6465763EEB
:101B50000020540020204D32303420500041636377
:101B6000656C65726174696F6E2028756E69747337
:101B70002F7332293A20503C7072696E745F616332
:101B800063656C3E20523C726574726163745F6180
:101B90006363656C3E20543C74726176656C5F6172
:101BA0006363656C3E0020204D3230312058004D7B
:101BB0006178696D756D20416363656C65726174F0
:101BC000696F6E2028756E6974732F7332293A001D
:101BD00020204D3230332058004D6178696D756D8D
:101BE000206665656472617465732028756E69741A
:101BF000732F73293A0053746570732070657220D7
:101C0000756E69743A0020440020204D3230302037
:101C100053002044697361626C65640A0046696C14
:101C2000616D656E742073657474696E67733A00D4
:101C300020204D3134392043203B20556E69747388
:101C400020696E2043656C736975730A0020286DE6
:101C50006D29002020473231202020203B20556E66
:101C600069747320696E206D6D0024F4D43050C304
:101C70008E20C2A24017828B7011127A910D816C56
:101C8000D90AA861E108C7586607615143061E4B8F
:101C90005D05C145A7041A411104093D9803713936
:101CA00031034036DB0265339102D4305402802E7A
:101CB0001D02632CEE01752AC501B028A001102772
:101CC00081018F2564012B244B01E0223401AC21DA
:101CD0001F018D200D01801FFC00841EED00971D4B
:101CE000DF00B81CD200E61BC600201BBC00641A33
:101CF000B200B219A8000A19A0006A189900D117F9
:101D0000910040178B00B516840031167E00B31584
:101D100079003A157300C7146F0058146A00EE1367
:101D200066008813630025135E00C7125B006C1207
:101D3000570015125400C111510070114F002111AC
:101D40004B00D61049008D10470046104400021089
:101D50004200C00F4000800F3E00420F3C00060FC3
:101D60003B00CB0E3800930E37005C0E3500270E7B
:101D70003400F30D3200C10D3100900D3000600DC4
:101D80002E00320D2D00050D2C00D90C2B00AE0CB1
:101D90002900850C29005C0C2700350C27000E0C4F
:101DA0002600E80B2400C40B2400A00B23007D0BAD
:101DB00023005A0B2100390B2100180B2000F80AD0
:101DC0001F00D90A1E00BB0A1E009D0A1D00800AC2
:101DD0001D00630A1C00470A1B002C0A1B00110A85
:101DE0001A00F7091A00DD091900C4091900AB0926
:101DF0001900920917007B091800630917004C09A4
:101E0000160036091600200916000A091500F50803
:101E10001500E0081400CC081400B8081400A40849
:101E20001400900813007D0812006B081300580876
:101E3000120046081200340811002308110012088D
:101E4000110001081100F0071000E0071000D00792
:101E50001000C0071000B0070F00A1071000910785
:101E60000E0083070F0074070F0065070E00570769
:101E70000E0049070E003B070D002E070E0020073D
:101E80000D0013070D0006070D00F9060C00ED0606
:101E90000D00E0060C00D4060C00C8060C00BC06C1
:101EA0000C00B0060C00A4060B0099060C008D0671
:101EB0000B0082060B0077060B006C060B00610618
:101EC0000A0057060B004C060A0042060A003806B4
:101ED0000A002E060A0024060A001A060A00100646
:101EE000090007060A00FD050900F4050900EB05D5
:101EF0000900E2050900D9050900D0050900C70558
:101F00000900BE050900B5050800AD050800A505D6
:101F100009009C050800940508008C05080084054C
:101F200008007C050800740508006C0507006505BD
:101F300008005D050700560508004E050700470527
:101F400007004005080038050700310507002A058D
:101F50000700230507001C050600160507000F05EE
:101F600007000805060002050700FB040600F5044B
:101F70000700EE040600E8040600E2040700DB04A4
:101F80000600D5040600CF040600C9040600C304F9
:101F90000600BD040600B7040600B1040500AC0449
:101FA0000600A6040600A00405009B040600950494
:101FB0000500900406008A040500850405008004DD
:101FC00006007A04050075040500700405006B0422
:101FD000050066040500610405005C040500570463
:101FE0000500520405004D040500480405004304A3
:101FF00005003E0404003A040500350405003004E1
:1020000004002C04050027040400230405001E041A
:1020100004001A04040016040500110404000D0451
:102020000400090405000404040000040400FC0387
:102030000400F8030400F4030400F0030400EC03BC
:102040000400E8030400E4030400E0030400DC03EC
:102050000400D8030400D4030400D0030400CC031C
:102060000400C8030300C503030024F404D9201BA3
:10207000C40C5C0E9804C4095F0265077101F40585
:10208000F900FB04B30048048700C103690058034A
:10209000550003034500BE023A008402310053029A
:1020A0002A002902250004022000E4011C00C801C6
:1020B0001900AF0117009801140084011300710189
:1020C00010006101100051010E0043010D003601A6
:1020D0000B002B010B0020010B00150109000C0166
:1020E000090003010800FB000800F3000800EB00F2
:1020F0000700E4000600DE000600D8000600D2005B
:102100000600CC000500C7000500C2000500BD00A8
:102110000400B9000400B5000400B1000400AD00E3
:102120000400A9000400A5000300A20003009F0012
:1021300004009B0003009800030095000200930038
:102140000300900003008D0002008B000300880054
:1021500002008600020084000300810002007F006C
:1021600002007D0002007B0002007900020077007F
:10217000010076000200740002007200010071008C
:1021800002006F0002006D0001006C0002006A0096
:10219000010069000200670001006600010065009F
:1021A00001006400020062000100610001006000A3
:1021B00001005F0002005D0001005C0001005B00A7
:1021C00001005A00010059000100580001005700A9
:1021D00001005600010055000100540001005300A9
:1021E00000005300010052000100510001005000A6
:1021F00001004F0001004E0000004E0001004D00A4
:1022000001004C0001004B0000004B0001004A009F
:10221000010049000100480000004800010047009B
:102220000100460000004600010045000000450096
:10223000010044000100430000004300010042008F
:102240000000420001004100000041000100400088
:1022500001003F0000003F0001003E0000003E0082
:1022600001003D0000003D0001003C0000003C007A
:1022700000003C0001003B0000003B0001003A0070
:1022800000003A0001003900000039000100380068
:10229000000038000000380001003700000037005F
:1022A0000100360000003600000036000100350055
:1022B000000035000000350001003400000034004B
:1022C0000000340001003300000033000000330040
:1022D0000100320000003200000032000100310035
:1022E000000031000000310001003000000030002B
:1022F0000000300001002F0000002F0000002F0020
:1023000000002F0001002E0000002E0000002E0013
:1023100001002D0000002D0000002D0000002D0008
:1023200001002C0000002C0000002C0000002C00FC
:1023300001002B0000002B0000002B0000002B00F0
:1023400001002A0000002A0000002A0000002A00E4
:1023500001002900000029000000290000002900D8
:1023600000002900010028000000280000002800CB
:1023700000002800000028000100270000002700BE
:1023800000002700000027000000270001002600B1
:1023900000002600000026000000260000002600A5
:1023A0000100250000002500000025000000250098
:1023B000000025000000250001002400000024008A
:1023C000000024000000240000002400010023007D
:1023D0000000230000002300000023000000230071
:1023E0000000230000002300010022000000220062
:1023F0000000220000002200000022000000220055
:102400000100210000002100000021000000210047
:102410000000210000002100000021000100200038
:10242000000020000000200000002000000020002C
:1024300000002000000020000000200001001F001C
:1024400000001F0000001F0000001F0000001F0010
:1024500000001F0000001F0001001E0000001E0001
:1024600000001E0000001E000000043700001E29AE
:102470000000511B00005810000010090000CC049F
:102480000000780200004101000020436F756E7467
:1024900020583A00453100626564002C207379733E
:1024A00074656D2073746F70706564212048656178
:1024B0007465725F49443A200048656174696E67CB
:1024C000204661696C65640048656174696E6720C7
:1024D0006661696C656400202D20496E76616C69C7
:1024E00064206578747275646572206E756D6265BE
:1024F0007220210A00544845524D414C2052554EFD
:102500004157415900546865726D616C2052756E77
:1025100061776179004572723A204D415854454DBA
:1025200050004D415854454D50207472696767659D
:10253000726564004572723A204D494E54454D50C3
:10254000004D494E54454D5020747269676765725D
:10255000656400202F002042403A0020403A004F9E
:1025600046460A00466164652048656967687420CC
:1025700000426564204C6576656C696E6720004694
:1025800061696C656420746F20656E61626C6520A2
:10259000426564204C6576656C696E670A00496E19
:1025A00076616C6964206D6573682E0A0050726FE5
:1025B00062696E6720506F696E740025532025692B
:1025C0002F25690050726F62696E67206D657368B0
:1025D00020706F696E742000202844525952554E65
:1025E0002900473239204175746F20426564204CC0
:1025F0006576656C696E67003F20284C2C522C462E
:102600002C4229206F7574206F6620626F756E648E
:10261000732E0A003F2856296572626F7365206C1D
:102620006576656C20696D706C61757369626C6547
:102630002028302D34292E0A00426164205A207649
:10264000616C75650A004E6F2062696C696E656128
:102650007220677269640A00204D393220580020C8
:10266000496E76616C696420657874727564657210
:10267000200020022046616374002002204D617812
:10268000002002204D696E004175746F74656D7095
:10269000005654726176204D696E00566D696E0069
:1026A000566D6178204500566D6178205A00566D50
:1026B0006178205900566D6178205800416D61782D
:1026C000204500416D6178205A00416D61782059A4
:1026D00000416D6178205800412D54726176656C1F
:1026E00000412D5265747261637400416363656CCF
:1026F00000436F6E66696775726174696F6E00433F
:10270000616E63656C0053746F70004368616E673F
:1027100065204D65646961004D3231005265737505
:102720006D65205072696E74004E6F204D6564694E
:10273000610054756E650053746F70205072696E3D
:1027400074005061757365205072696E7400496E33
:10275000666F2053637265656E00537461727420F6
:102760005072696E740043616E6E6F7420656E7492
:102770006572207375626469723A2000052E2E001E
:1027800050726F62652059204F6666736574005001
:10279000726F62652058204F66667365740045202D
:1027A00073746570732F6D6D005A20537465707368
:1027B0002F6D6D00592053746570732F6D6D005827
:1027C0002053746570732F6D6D00496E6974004DF0
:1027D0003432380046696C616D656E740050726FFA
:1027E0006265204F666673657473004A756E637424
:1027F000696F6E2044657600416363656C65726144
:1028000074696F6E0056656C6F6369747900536507
:102810007420486F6D65204F66667365747300425F
:1028200061636B004D6F74696F6E004D3834004109
:1028300075746F20486F6D650054656D70657261C9
:102840007475726500486F74656E6420746F6F20D4
:10285000636F6C640050726F6365656400446973F4
:1028600061626C6520537465707065727300486FA7
:102870006D65205A004732385A00486F6D652059FF
:10288000004732385900486F6D652058004732388C
:102890005800473238005072656865617420242002
:1028A000456E64005072656865617420242042653D
:1028B00064002062797465733B2063726320004E6C
:1028C0006F20454550524F4D2E0A00454550524FFE
:1028D0004D206461746173697A65206572726F72EC
:1028E0002E0A002073746F726564207365747469B6
:1028F0006E6773207265747269657665642028005E
:10290000202863616C63756C6174656429210A0019
:1029100020213D2000454550524F4D204352432039
:102920006D69736D61746368202D202873746F72F4
:102930006564292000496E6465783A20004449475F
:1029400049504F5453204C6F616465640A004449F8
:102950004749504F5453204C6F6164696E670A00B9
:10296000204D61726C696E3D563832290A0045452A
:1029700050524F4D2076657273696F6E206D69738A
:102980006D617463682028454550524F4D3D0048A5
:10299000617264636F6465642044656661756C741C
:1029A0002053657474696E6773204C6F616465644D
:1029B0000A003B20000000FA430000FA430000A098
:1029C000400000C8410000A0420000A0420000C733
:1029D0004310FEBC42B0040000B0040000640000DC
:1029E00000102700003F00496E697469616C697AC4
:1029F0006520454550524F4D005072696E7420411C
:102A0000626F72746564004D323500506175736990
:102A10006E672E2E2E00454550524F4D2056657242
:102A200073696F6E204572726F7200454550524F48
:102A30004D20496E646578204572726F720045457D
:102A400050524F4D20435243204572726F720049DD
:102A5000676E6F726500506C6561736520526573B7
:102A60006574005052494E5445522048414C5445DB
:102A7000440025533A202553004B494C4C45442EE5
:102A800020005072696E7465722068616C746564B0
:102A90002E206B696C6C28292063616C6C65642145
:102AA0000A006563686F3A004572726F723A0042BD
:102AB000696C696E656172204C6576656C696E67DC
:102AC00020477269643A0A005072696E7420667217
:102AD0006F6D204D6564696100205A3A20002059CD
:102AE0003A200042656420583A20005072696E74A2
:102AF000205061757365640050726F62696E672063
:102B00004661696C65640A0050726F62696E672085
:102B10004661696C656400220A00556E6B6E6F77C2
:102B20006E20636F6D6D616E643A20220033642005
:102B30004261722052656164792E005072696E7430
:102B4000696E672E2E2E0020453A00205A3A00204A
:102B5000593A0000002200250028002B002E0031E9
:102B600000340002010000050108010B01000021F2
:102B700000240027002A002D00300033000101004E
:102B800000040107010A01050505050705080808F5
:102B900008020202020A0A080804040404010101EE
:102BA00001010101010303030303030303040707F6
:102BB000070C0C0C0C0C0C0C0C0202020206060694
:102BC00006060606060B0B0B0B0B0B0B0B0102107C
:102BD0002020080810204010204080020102010837
:102BE00004020101020408102040808040201008E7
:102BF0000402018004020180402010080402010840
:102C0000040201010204081020408001020408109F
:102C10002040804361703A0047322F473320626181
:102C20006420706172616D65746572730A000000E2
:102C30000A0B02090C0D0E08070304010000000036
:102C40000000000000000000000000000000000084
:102C50000000000000000000000012111000000041
:102C60000000000000000000000000000000000064
:102C7000000000004D6F76652025736D6D004D6F6F
:102C8000766520302E316D6D004D6F766520316D8B
:102C90006D004D6F76652031306D6D004D6F76653E
:102CA0002041786973004578747275646572004DCF
:102CB0006F7665205A004D6F76652059004D6F760E
:102CC000652058000DF136F011241FBECFEFD1E280
:102CD000DEBFCDBF00E00CBF13E0A0E0B2E0E0E358
:102CE000F5E002E00BBF02C007900D92AC31B107D6
:102CF000D9F722E1ACE1B3E001C01D92A43CB207D8
:102D0000E1F716E1C3E6D6E100E006C0219701092C
:102D1000802FFE010E94D6FEC236D10780E0080750
:102D2000A9F70E9447E90D9486020C9400002F92A7
:102D30003F924F925F926F927F928F929F92AF924B
:102D4000BF92CF92DF92EF92FF920F931F93CF9398
:102D5000DF93CDB7DEB7EA970FB6F894DEBF0FBEAC
:102D6000CDBF8AAF2091260328AB81E08093260354
:102D7000809153128D3409F4F0C2843511F40C940F
:102D80005026873411F00C94752620915112309101
:102D900052122C31310509F489C094F424303105E4
:102DA00034F422303105B4F537FF28C0D2C22430C4
:102DB0003105F1F12531310511F40C947726C9C2A2
:102DC0002A32310509F49EC14CF42D31310509F444
:102DD0007DC02E31310509F498C0BBC22B353105B9
:102DE00009F40DC12C35310509F40EC12A35310520
:102DF00009F0AFC2109225030C94772680915005FC
:102E0000813011F00C9477260E9457A00E94767BA7
:102E10000C94772680915005813011F00C94772620
:102E20002230310509F080E00E94BBDE0C94772649
:102E300080E50E94D4CD882329F00E9443A16B0134
:102E40007C0103C0C12CD12C760183E50E94D4CD36
:102E5000882361F00E944FCD20E030E04AE754E43F
:102E60000E9449F80F946C006B017C010E94F63AB5
:102E70008091350D811105C060E08BE195E00E94E5
:102E8000A8C90E949EE5C60ED71EE81EF91E0E9424
:102E90009EE5DC01CB018C199D09AE09BF09B7FD88
:102EA00002C00C9477260E94F82DF1CF8091840BFC
:102EB0008770873011F00C94802660E08FE40E94C8
:102EC0003BA581110C9477260C9480260E949EE5E8
:102ED0006093380C7093390C80933A0C90933B0CB0
:102EE00087E00E947F7A81110C9477268091780C7C
:102EF000882311F40C94B02760E08FE40E943BA576
:102F000081110C9477260C94B0272091CA0D309132
:102F1000CB0D4091CC0D5091CD0D60916812709108
:102F2000691280916A1290916B120E94F9FEAB01B6
:102F3000BC0188E50E947A8669837A838B839C83AF
:102F40002091CE0D3091CF0D4091D00D5091D10DEB
:102F500060916C1270916D1280916E1290916F124F
:102F60000E94F9FEAB01BC0189E50E947A866D835F
:102F70007E838F839887BE016B5F7F4FCE01019662
:102F80000E9456A1882311F40C94772680E00E94B9
:102F9000FACF0E944D7E61E085E40E943BA521E0CE
:102FA000482FBE016B5F7F4FCE0101960E9462D613
:102FB0006B017C019B01AC010F94EB01811119C0E5
:102FC00049815A816B817C8183EE9AE20E9421D4EF
:102FD0004D815E816F8178858EED9AE20E9421D4C9
:102FE000B701A60189ED9AE20E9421D48AE00E94ED
:102FF000CC2C0E94347E0E942B810C9477268FE08B
:10300000809325030C94772695E6292E92E0392E9D
:1030100028E7E22E2BE0F22EA8E6B2E1B9A3A8A39E
:1030200032E0C32E3EE0D32E00E010E0F1018191AA
:103030001F010E94D4CD882309F44AC00E944FCDBD
:103040002B013C01133049F0D6012D913D914D915A
:103050005C910E94F8FE2B013C01E8A1F9A12081BE
:10306000318142815381C301B2010E94F8FE4B01BC
:103070005C012DEB37E346E855EB0F94590187FDD2
:103080000AC02DEB37E346E855E3C501B4010E94C1
:10309000E3F71816ECF4133051F440927412509286
:1030A0007512609276127092771201E011C0A5013C
:1030B0009401D7016D917D918D919C910E94F9FEB3
:1030C000F7016083718382839383812F0E944C7AFE
:1030D0001F5FF4E0EF0EF11C28A139A12C5F3F4FD8
:1030E00039A328A334E0C30ED11C143009F09ECFBD
:1030F000002321F084E792E10E94063B0E942B818D
:103100000C94772680915005813011F00C9477262D
:1031100089E40E94D4CDE82E882321F00E9450A596
:10312000082F01C000E08AE40E94D4CDF82E882345
:1031300021F00E9450A5182F01C010E0EE2011F0E0
:10314000033020F4FF2041F0133030F087E495E0A5
:103150000E9469D30C94772680E1E8E6F2E1A5E8C5
:10316000BBE001900D928A95E1F7EE2019F1602FF6
:10317000000F770B880B990B0E94EAF720913C0C0B
:1031800030913D0C40913E0C50913F0C0E9449F80B
:103190002091220D3091230D4091240D5091250D49
:1031A0000E94F9FE6093850B7093860B8093870BCA
:1031B0009093880BFF2019F1612F110F770B880B6B
:1031C000990B0E94EAF72091400C3091410C4091FC
:1031D000420C5091430C0E9449F82091260D3091E9
:1031E000270D4091280D5091290D0E94F9FE609302
:1031F000890B70938A0B80938B0B90938C0B60E000
:1032000080E50E943BA58823C1F1EE20D1F02091FA
:10321000CA0D3091CB0D4091CC0D5091CD0D6091E8
:10322000850B7091860B8091870B9091880B0E9483
:10323000F8FE6093850B7093860B8093870B9093B9
:10324000880BFF20D1F02091CE0D3091CF0D409111
:10325000D00D5091D10D6091890B70918A0B8091A6
:103260008B0B90918C0B0E94F8FE6093890B7093EE
:103270008A0B80938B0B90938C0B40E050E0BA014B
:1032800086E40E947A866B017C0120E030E0A9018F
:103290000F94590118165CF420E030E040E752E446
:1032A000C701B6010E94F3FF6B017C0103C0C12C72
:1032B000D12C76018090610290906202A09063020E
:1032C000B090640220E030E0A901C701B6010E947D
:1032D000E3F7882341F0C0926102D0926202E0924B
:1032E0006302F092640200913F021091400284E672
:1032F00090E09093400280933F02C0903902D090BA
:103300003A02E0903B02F0903C0280E090E0A0E8BE
:10331000BFE38093390290933A02A0933B02B093AB
:103320003C020E94767B8092610290926202A0929F
:103330006302B09264021093400200933F02C09275
:103340003902D0923A02E0923B02F0923C020C9495
:1033500077260E94F2D50C94772600915112109195
:1033600052120537110509F456C70CF04BC10C3445
:10337000110509F4CEC40CF060C00831110509F440
:10338000ECC264F50231110509F45BC674F417FF51
:1033900002C00C944D26023011050CF418C2013104
:1033A000110509F471C20C944D260531110509F47B
:1033B000B0C234F40431110509F47AC20C944D26DC
:1033C0000631110509F4A9C20731110511F00C9459
:1033D0004D26E0914F12F0915012B3C20D311105FC
:1033E00009F441C3BCF40A31110509F4DBC20CF441
:1033F000C0C20B31110509F4E3C20C31110511F003
:103400000C944D2680914F12909150120E94D675C7
:103410000C9477260F31110509F4D0C30CF42AC39C
:103420000032110509F487C30B34110511F00C9417
:103430004D260E9440820C9477260A36110509F425
:10344000B6C4CCF50435110509F4FBC5FCF401350F
:10345000110509F4DBC54CF40D34110511F00C9481
:103460004D260E9464820C9477260235110509F4DA
:10347000E1C50335110511F00C944D26809125030B
:103480008F7E8062809325030C9477260C3511057E
:1034900009F430C634F40535110509F408C60C9456
:1034A0004D260836110509F448C40936110509F4FA
:1034B0006AC40C944D260F36110509F4CEC484F469
:1034C0000C36110509F40EC50CF4ADC40D3611050A
:1034D00009F456C40E36110509F4AEC40C944D26F9
:1034E0000137110509F40BC50CF401C502371105AC
:1034F00009F48AC60337110511F00C944D268EEBA2
:1035000097E00E9469D360E08EEA97E00E94DEE3D4
:1035100060E089E997E00E94DEE361E082EF99E2F2
:103520000E94DEE361E08EE897E00E94DEE361E066
:103530008EE797E00E94DEE360E085E797E00E9477
:10354000DEE361E08BE697E00E94DEE361E081E686
:1035500097E00E94DEE360E08AE597E00E94DEE308
:1035600061E082E597E00E94DEE361E084E497E0B9
:103570000E94DEE360E086E397E00E94DEE360E025
:1035800087E297E00E94DEE360E089E197E00E9435
:10359000DEE360E083E097E00E94DEE360E082EF3C
:1035A00096E00E94DEE360E083EE96E00E94DEE3B8
:1035B00061E08CED96E00E94DEE360E087EC96E04F
:1035C0000E94DEE360E089EB96E00E94DEE361E0CA
:1035D00086EA96E00E94DEE360E089E996E00E94D8
:1035E000DEE361E084E996E00E94DEE360E087E8E4
:1035F00096E00E94DEE360E083E796E00E94DEE36F
:103600000C9477260D3241E0140711F40C941D241C
:103610000CF05FC0083C110509F4C5C644F5093734
:10362000110509F445C674F40737110509F435C6C8
:103630000CF036C600914F121091501294E0F12C0C
:1036400040E00FC60139110509F439C634F40C38CD
:10365000110509F476C40C944D260B39110509F4B3
:10366000AFC40E3B110509F48BC40C944D260E3CDF
:10367000110509F462C7ACF40B3C110509F4FCC652
:1036800034F4093C110509F4D4C60C944D260C3CC5
:10369000110509F413C70D3C110509F440C70C943A
:1036A0004D260C3D110511F40C94812334F4033D97
:1036B000110509F460C70C944D260D3D110511F458
:1036C0000C94A8230C32114011F40C94FE230C949A
:1036D0004D26043F91E0190711F40C94C4250CF019
:1036E0003FC00239B1E01B0711F40C94E724DCF46D
:1036F0000F32F1E01F0711F40C94E12414F40C9440
:103700009D24003931E0130711F40C94E4240139AD
:10371000114011F00C944D2681E00E94D2380E9495
:103720002B810C947726043A51E0150711F40C9480
:10373000EC244CF40A39114011F00C944D260E94EF
:10374000F32B0C947726053AA1E01A0711F40C9498
:10375000EF240C3A114011F40C9465250C944D267D
:103760000C30E2E01E0711F40C94E725B4F4063F98
:1037700021E0120711F40C94CA2514F40C94C72507
:10378000073F41E0140711F40C94CD25083F114088
:1037900011F40C94D6250C944D26003A83E01807BA
:1037A00009F4FEC13CF40335134011F40C94F425E4
:1037B0000C944D26073EB3E01B0711F40C9425260C
:1037C000093E134011F40C9433260C944D2680E5E9
:1037D0000E94D4CD882329F00E9443A16B017C0173
:1037E00003C0C12CD12C760183E50E94D4CD88235F
:1037F00061F00E944FCD20E030E04AE754E40E949F
:1038000049F80F946C006B017C010E94F63A80919C
:103810004F1290915012009721F061E00E943ACA35
:1038200005C060E080E695E00E94A8C910912603DB
:1038300083E08093260381E080935F0DC114D1045F
:10384000E104F10431F00E949EE5C60ED71EE81E89
:10385000F91E80915F0D882311F40C94B727C114D1
:10386000D104E104F10411F40C94B3270E949EE505
:10387000DC01CB018C199D09AE09BF09B7FF02C05D
:103880000C94B3270C94B72780914B1284FF02C08D
:103890000C94BE2780914D1287FF02C00C94BE2766
:1038A00080914E12837011F00C94BE270C94DA278D
:1038B00080912F1283FF25C08BE895E00E9469D389
:1038C00080912F1283FF17C08FE890E10E94CF49AB
:1038D0008BE1EFE8F0E1DE01119601900D928A95FF
:1038E000E1F760E070E0CE0101960E943777CE01EB
:1038F00001960E947A4B8CE795E00E9469D30C9464
:1039000077260E9456D48CE995E00E9469D30C94E6
:1039100077260E943A740C94772680912F1282FFAA
:1039200002C00C9477260E947E7380912F12877FAD
:10393000806280932F120C947726803209F41082D3
:10394000319680818111F9CF60E080914F12909182
:1039500050120E941E760C9477260E94182C882301
:1039600021F00E948D730E9440820E9432D50C94F7
:10397000772680912F1282FF03C08B7F80932F12B6
:103980008091010E813089F782E08093010E0E94C0
:103990009EE56093740B7093750B8093760B9093F8
:1039A000770BE3CF80912F1283FD02C00C94772612
:1039B00083E50E94D4CD81110C94E8270C947726DE
:1039C00083E40E9486CD882319F180EB95E00E9464
:1039D00069D380913910882391F0BE016F5F7F4FCA
:1039E00086E390E10E94804B8E010F5F1F4FD8014C
:1039F0008D918D01882339F00E94CC2CF8CF86EA76
:103A000095E00E9469D38AE00E94CC2C0C94772622
:103A100080912F1282FF21C08FEB95E00E9469D325
:103A200060912B1270912C1280912D1290912E1278
:103A30004AE00E94D32C8FE20E94CC2C6091271286
:103A4000709128128091291290912A124AE00E94C6
:103A5000D32C0E94D12D0C94772681ED95E00E9405
:103A600069D30C94772680912F128E7F80932F122A
:103A70000C94772680912F1283FD02C00C94772638
:103A80000E94DBD580912F1283FD02C00C94772613
:103A900040914F1250915012BE01645E7F4F80E002
:103AA0000E94F9E78C01009711F40C9477266C8D35
:103AB0007D8D19821C8222E0AC01CE0101960E940C
:103AC0003E4F811102C0F12C14C0CE0101960E941C
:103AD000B7DC8823C1F361E0CE0101960E94224B3E
:103AE000009789F325EEFC0120831C820E943F4A47
:103AF000F82ECE0101960E947A4BB801FF2089F082
:103B00008AEF95E00E943FD48AE00E94CC2C10926C
:103B10002B1210922C1210922D1210922E120C9425
:103B2000772682EE95E00E943FD486E396E20E94DB
:103B300069D30C94772680912F1282FD0E94F63A69
:103B400080912F1283FD02C00C94772660E080E5FF
:103B50000E943BA5182F682F80914F129091501210
:103B60000E941E7683E50E94D4CD882381F00E94B6
:103B70003FCDAB01BC0140932B1250932C126093AC
:103B80002D1270932E1286E390E10E94E0470E946E
:103B90008D7311110C9477260E9440820C94772625
:103BA00020914F123091501290912F129260909369
:103BB0002F12C9010E94D6750C9477260E94F181BC
:103BC0007B018C0120E831E541E050E00E9439FEA4
:103BD000C9016DE671E00E948FFE4B015C01C801D6
:103BE000B70120E13EE040E050E00E9439FECA010A
:103BF000B90128E130E040E050E00E9439FE762E25
:103C0000672EC62ED72E8CE3282E312C412C512C1A
:103C1000C801B701A20191010E9439FEF62EE72EDC
:103C2000CA01B901A20191010E9439FECB018E01A6
:103C30000F5F1F4F8114910499F0EF92FF927F93D1
:103C40006F936F927F92BF92AF929F928F9288E014
:103C500096E09F938F931F930F930E947BF713C05F
:103C6000A114B104B1F0EF92FF927F936F936F9222
:103C70007F92BF92AF928CE096E09F938F931F93B9
:103C80000F930E947BF70FB6F894DEBF0FBECDBF37
:103C900030C0CD2879F0EF92FF927F936F936F92AF
:103CA0007F9280E196E09F938F931F930F930E94E2
:103CB0007BF7E9CF892B69F0EF92FF927F936F93A7
:103CC00084E196E09F938F931F930F930E947BF75D
:103CD000DACFEF92FF9288E196E09F938F931F9344
:103CE0000F930E947BF70F900F900F900F900F9003
:103CF0000F9060E0C8010E943ACA0E9456D4B801F1
:103D00008CE196E00E943FD48AE00E94CC2C0C9477
:103D100077268091010E813011F00C94772682E095
:103D20008093010E0E949EE56093740B7093750B57
:103D30008093760B9093770BDAC78091A50A83FD69
:103D4000D6C70E9419A387FDD2C789E40E94D4CDAB
:103D5000882311F40C94F9270E9405A390E018160B
:103D6000190614F481E090E026E0289FF001299FD5
:103D7000F00D1124EC5BF34F808191810C940328AA
:103D80000E94848AB4C70E9419A3182F87FD0AC015
:103D900084EF91E10E9469D3812F0E941D988AE0EF
:103DA0000E94CC2CB8A9B09326030C94BF2B60E0E2
:103DB00080E50E9442A381119AC781E40E9486CDCA
:103DC000882329F06091E105062F10E002C00FEF73
:103DD00010E089E40E94D4CD882399F00E9405A3C5
:103DE00090E01816190614F481E090E026E0289F70
:103DF000F001299FF00D1124EC5BF34F0481158134
:103E000008C083E50E94D4CD882319F00E943FCDDD
:103E10008B01B8010F3F110519F010F06FEF70E042
:103E20006093E10564C760E080E50E9442A38111D0
:103E30005EC71092E1055BC78EE40E94D4CD882353
:103E400009F455C70E943FCD6093340C7093350C34
:103E50008093360C9093370C4AC783E50E9486CD39
:103E6000882331F060E083E50E9442A38093A50A95
:103E70000E9456D48DE296E00E9469D38091A50AF3
:103E8000882369F10AE2E02E0AE0F02E00E010E05B
:103E900020E08091A50A90E0A0E0B0E0002E04C0F0
:103EA000B695A795979587950A94D2F780FF0EC08F
:103EB000DD24D394D20E222319F08CE20E94CC2C64
:103EC000F701859194910E9469D32D2D0F5F1F4FAB
:103ED000E2E0EE0EF11C05301105D9F694CD89E231
:103EE00096E08FCD10925F0D1092380200C741E02E
:103EF00060E070E084E396E00E945AD4F8C683E55F
:103F00000E94D4CD882371F00E9405A3282F30E0B1
:103F10002D3331051CF480930002E9C68CE38093B5
:103F20000002E5C60E9456D44091000250E060E0D5
:103F300070E082E496E00E9403D48AE00E94CC2CD8
:103F4000D6C68091A50A83FDD2C689E40E94D4CD4D
:103F5000882311F40C940C280E9405A390E01816F5
:103F6000190614F481E090E026E0289FF001299FD3
:103F7000F00D1124EC5BF34F628173810C941628D1
:103F80008091A50A83FDB3C689E40E94D4CD88231D
:103F900011F40C9425280E9405A390E01816190628
:103FA00014F481E090E026E0289FF001299FF00DB5
:103FB0001124EC5BF34F6281738118A20C943528B5
:103FC00083E50E94D4CD882309F491C60E9405A3FD
:103FD000182F90E0CD970CF01CE3109320030E9463
:103FE0009EE56B017C01212F30E0A8EEB3E00E943A
:103FF00066FEC60ED71EE81EF91EC0921C03D092A4
:104000001D03E0921E03F0921F0371C60E94E09808
:104010000E9464820E94653C0E94382C68EE73E026
:1040200080E090E00E9445D360E087E696E00E9441
:10403000A8C95DC6809125038F7D8061809325038B
:1040400056C683E50E94D4CD8823E9F00E949EE500
:104050006093380C7093390C80933A0C90933B0C1E
:104060000E944FCD20E030E04AE754E40E9449F836
:104070000F946C006093010270930202809303021C
:104080009093040234C680914B1284FF02C00C94BA
:10409000BB2980914D1287FF02C00C94BB298091EF
:1040A0004E12837011F00C94BB290C94EC2983E51B
:1040B0000E9486CD882309F41AC60E949EE560936B
:1040C000380C7093390C80933A0C90933B0C0E94FF
:1040D0004FCD20E030E04AE754E40E9449F80F94C5
:1040E0006C006093210370932203809323039093C9
:1040F0002403FDC50E9419A387FDF9C590914B12B9
:1041000094FD04C090914D1297FF0AC0E5E6CE2EB3
:10411000E2E0DE2EF6EAEF2EFAE0FF2E10E009C014
:1041200090914E12937091F7682F81E00E9408A140
:10413000DEC5D6018D916D010E94D4CD882309F48E
:1041400059C0133009F04FC00E944FCD4B015C01A4
:1041500020E030E040EA51E40E94E3F787FF3AC0F4
:10416000A50194016091C60A7091C70A8091C80A9E
:104170009091C90A0E94F3FF2B013C019B01AC0105
:104180006091D60A7091D70A8091D80A9091D90A85
:104190000E9449F86093D60A7093D70A8093D80A90
:1041A0009093D90A6091D5057091D6058091D70575
:1041B0009091D8050E94E8F7A30192010E9449F866
:1041C0000F946C006093D5057093D6058093D70546
:1041D0009093D8058092C60A9092C70AA092C80A06
:1041E000B092C90A07C00E944FCDF701648B758B4E
:1041F000868B978B1F5FF4E0EF0EF11C143009F0F3
:1042000098CF0E940B3A73C50E94CDD485ED90E102
:104210000E94D69F6CC580914F12909150120097CA
:1042200009F4A3CBDC012C91222309F49ECB60E09E
:104230000E943ACA5CC5F8018081282F2B7F213467
:1042400099F08035E9F4818180538A30C8F498016F
:104250002E5F3F4F89012F5F3F4FF80180818032F1
:10426000C9F3915041F70CC02181213349F48134C5
:1042700021F0853461F741E0EACFFF24F394E7CFE2
:1042800041110E9456D4FF2021F080E998E00E945D
:1042900069D3C8010E94D72D2AC50E94C08127C5B5
:1042A00081E08093BC038093BB030E94E2811FC521
:1042B0001092BC031092BB030E94E28118C560E01B
:1042C00070E083E50E9454A5823038F00E9452D4F9
:1042D00084E998E00E9469D30AC58C01112788E41B
:1042E0000E94D4CD8823E1F00E9450A58A3A91051E
:1042F00044F00E9450A58530914034F40E9450A5AE
:1043000005C08AEA90E002C084E091E026E0209FA8
:10431000F001219FF00D1124EC5BF34F918380831A
:1043200082E40E94D4CD8823D9F00E9450A505973D
:1043300044F00E9450A58D38910534F40E9450A598
:1043400005C085E090E002C08CE890E026E0209F68
:10435000F001219FF00D1124EC5BF34F93838283D6
:1043600086E40E94D4CD882309F4C1C40E9450A5DC
:1043700097FD09C00E9450A58F3F910509F034F4C4
:104380000E9450A505C080E090E002C08FEF90E051
:1043900026E0209FF001219FF00D1124EC5BF34FEC
:1043A00095838483A4C40E9419A3182F87FD9FC4FA
:1043B00000917D0C84E40E94D4CD882311F40C94E8
:1043C000EF290E944FCD6B017C0120E030E0A90174
:1043D0000E94E3F7882339F124E01202F00111244E
:1043E000E758F34FC082D182E282F38220E030E0CE
:1043F000A9016091790C70917A0C80917B0C90915D
:104400007C0C0E94E3F781110CC080E090E0A0EEEC
:10441000BFE38093790C90937A0CA0937B0CB093BC
:104420007C0C01E0DCC780E080937D0C0E94F533BA
:104430005EC40E9419A387FD5AC475E6E72E72E098
:10444000F72E06EA1AE0D7018D917D010E9486CDF4
:10445000882359F00E944FCD0F946C00F8016083BF
:104460007183828393830E94C4390C5F1F4FFAE0EB
:10447000063B1F0741F73BC40E9419A387FD37C4C1
:1044800055E6E52E52E0F52E06EA1AE066EBC62E5A
:104490006AE0D62ED7018D917D010E9486CD8823BA
:1044A00039F00E944FCDF80164A375A386A397A3AA
:1044B0000C5F1F4FC016D10669F719C480914C12CA
:1044C00087FD92C780914D128E7009F08DC7409183
:1044D000DA0A5091DB0A6091DC0A7091DD0A86EB02
:1044E00098E00E9421D44091DE0A5091DF0A609149
:1044F000E00A7091E10A88E59AE10E9421D4409196
:10450000E20A5091E30A6091E40A7091E50A81E5BC
:104510009BE10E9421D48AE00E94CC2CE8C38091C8
:104520004B1281FDA7C780914C1281FDA3C78091DA
:104530004D128C7009F09EC7DAC34FEBE42E43E0B6
:10454000F42E10E088E5810F0E9486CD882359F073
:104550000E944FCDD7016D937D938D939C931397BC
:10456000812F0E944C7A1F5FB4E0EB0EF11C1330D8
:1045700049F70C947E184090020E5090030E609004
:10458000040E7090050E2091160230911702409192
:10459000180250911902C301B2010E94F9FE68A3EA
:1045A00079A38AA39BA38090060E9090070EA090FB
:1045B000080EB090090E20911A0230911B02409112
:1045C0001C0250911D02C501B4010E94F9FE6CA3AA
:1045D0007DA38EA39FA3C0900A0ED0900B0EE090F7
:1045E0000C0EF0900D0E20911E0230911F02409192
:1045F000200250912102C701B6010E94F9FE68A76E
:1046000079A78AA79BA7209122023091230240918B
:10461000240250912502C301B2010E94F9FE2B0130
:104620003C012091260230912702409128025091AE
:104630002902C501B4010E94F9FE4B015C012091E1
:104640002A0230912B0240912C0250912D02C70179
:10465000B6010E94F9FE6B017C010E9456D485EFE1
:1046600098E00E9469D383E50E9486CD882321F0DB
:104670000E944EA38093140280911402882319F0A3
:1046800080E095E002C08AEB97E00E9469D38DEE4E
:1046900098E00E9469D348A159A16AA17BA18CEA44
:1046A0009BE10E9421D44CA15DA16EA17FA18EE768
:1046B00098E20E9421D448A559A56AA57BA582E766
:1046C00098E20E9421D48BEB9CE00E9469D385EE96
:1046D00098E00E9469D3B301A2018CEA9BE10E9499
:1046E00021D4B501A4018EE798E20E9421D4B7013C
:1046F000A60182E798E20E9421D48AE00E94CC2C95
:10470000F6C283E50E94D4CD882331F00E9450A5E3
:104710009093400280933F0280914B1290914C12F3
:10472000A0914D12B0914E12892B8A2B8B2B09F040
:10473000DEC260913F027091400285E099E00E94E4
:1047400032D485E20E94CC2C8AE00E94CC2CCFC2CD
:104750000E9419A3F82E87FDCAC283E50E94D4CD1A
:104760000F2D0F2C000C110B882369F10E9450A50E
:10477000F801EE0FFF1FEA5FFD4F91838083000F6A
:10478000111F000F111FF801E75CFD4F7F01BC01F5
:10479000990F880B990B0E94EAF72AE037ED43E264
:1047A0005CE30E9449F8F801E556FC4F2081318115
:1047B000428153810E9449F8D7016D937D938D9377
:1047C0009C93139794C20E9456D485E40E94CC2CEB
:1047D00080E38F0D0E94CC2C000F111FF801EA5FBF
:1047E000FD4F6081718189E099E00E9432D485E2B9
:1047F0000E94CC2C8AE00E94CC2C79C283E50E94D6
:10480000D4CD882321F00E943FCD8B0102C004E06B
:1048100011E080E50E94D4CD882349F00E943FCD6D
:10482000CB016938734128F088E893E102C088EE33
:1048300093E0B8010E9471C95AC260E085E40E9409
:1048400042A3811173C080E50E9486CD882351F078
:104850000E944FCD60931F0E7093200E8093210E07
:104860009093220E89E40E9486CD882381F00E94D5
:104870004FCD2CEA35EC47E25EE30E9449F86093A5
:10488000230E7093240E8093250E9093260E84E4BD
:104890000E9486CD882381F00E944FCD2CEA35EC12
:1048A00047E25EE30E94F3FF6093270E7093280EA9
:1048B0008093290E90932A0E0E9456D440911F0E89
:1048C0005091200E6091210E7091220E89E199E0A5
:1048D0000E9421D42CEA35EC47E25EE36091230E7E
:1048E0007091240E8091250E9091260E0E94F3FF68
:1048F000AB01BC0185E199E00E9421D42CEA35ECA2
:1049000047E25EE36091270E7091280E8091290E98
:1049100090912A0E0E9449F8AB01BC0181E199E017
:104920000E9421D48AE00E94CC2CE1C10E9452D482
:104930008DE199E00E9469D3DAC183E50E9486CDBA
:10494000182F882371F00E944FCD0F94650070934B
:104950003E0260933D0221E0672B09F020E02093A6
:10496000F20580E50E9486CD882359F020913D0212
:1049700030913E02232B11F00E944EA38093F2054A
:10498000B6C11111B4C10E9456D488E499E00E94C6
:1049900069D38091F205882319F087E597E202C078
:1049A0008FE299E00E9469D360913D0270913E02CE
:1049B00087E399E00E9432D483E399E00E9469D3AF
:1049C00096C10E94918693C10E94F63A90C10E94BE
:1049D00053A10E942B818BC10E945EA388C16FEFFF
:1049E0007FEF89E40E9454A5082F6FEF7FEF8AE4E0
:1049F0000E9454A5182F8AE50E94D4CD811108C0C9
:104A000081E50E94D4CDB82E882309F48CC501C05D
:104A1000B12CA02E81E0800F843008F04FC0912E81
:104A200081E0810F843008F049C00E944FCD2B01F6
:104A30003C01F02E07FDF12C07FF02C0A2E0AA2ED8
:104A4000812E17FD812C17FF02C0F2E09F2EAF14BC
:104A500008F44DC1E82C8F2D90E06C01CC0CDD1CCE
:104A6000C80ED91E9E1440F10E2D10E0BB2071F02F
:104A7000F601E00FF11FEE0FFF1FEE0FFF1FE05BCF
:104A8000F34F208131814281538103C020E030E027
:104A9000A9010C0D1D1D000F111F000F111F005B40
:104AA000134FC301B2010E94F9FEF80160837183C4
:104AB00082839383E394D6CFF394C9CF0E9452D4D8
:104AC00087E495E00E9469D312C187E00E947F7A53
:104AD00081110DC10CE21CE028E632E139A328A3C4
:104AE000AE014F5F5F4F1A0194EEC92E91E1D92EAE
:104AF0007A01F8016591759185919491A8A1B9A168
:104B00008D909D90AD90BD90B9A3A8A3A5019401EF
:104B10000E94F8FE2B013C01F701608371838283C0
:104B2000938320E030E040EA51EC0F94590187FD77
:104B30000AC020E030E040EA51E4C301B2010E9423
:104B4000E3F718162CF4F601849118160CF4F2C44D
:104B5000D7018D909D90AD90BD907D0120E030E01B
:104B600040EA51ECC501B4010F94590187FDEDC431
:104B700020E030E040EA51E4C501B4010E94E3F7CF
:104B800018160CF0F6C4E1C40E949234B0C00E9422
:104B900044C7ADC00E94B0C0AAC061E083E50E94D6
:104BA0003BA591E089270E94B194A1C081E0809348
:104BB0002B0D0E94DBC110922B0D882309F497C0A6
:104BC0000E9456D487EB99E00E9469D390C08091EF
:104BD0002F1282FF04C0806480932F1288C083FF4D
:104BE00086C00E94DBD583C080914D1287FDF7C43B
:104BF00080914E12837009F0F2C44091CA0D509119
:104C0000CB0D6091CC0D7091CD0D8FEF99E00E948E
:104C100021D44091CE0D5091CF0D6091D00D709167
:104C2000D10D8EE798E20E9421D44091D20D50918F
:104C3000D30D6091D40D7091D50D82E798E20E945A
:104C400021D48AE00E94CC2C52C081E08093500590
:104C500010925E0D60E083E50E943BA5811147C084
:104C60000E94D78C44C00E94F1816D33710581058B
:104C7000910520F086E29AE00E94F8E382E29AE051
:104C80000E94F8E38EE09AE00E9469D38BE298E2FA
:104C90009093CD038093CC032AC00E94F2D527C005
:104CA00000915112109152120E949EE56093380CAF
:104CB0007093390C80933A0C90933B0C0023B9F01D
:104CC0000E9456D484E50E94CC2CB8017727072E89
:104CD000000C880B990B0E94402D80E20E94CC2C86
:104CE0008DE199E00E9469D302C00E94F2D5FAAD2D
:104CF000F11102C00E94C78C28A9209326033FC54A
:104D00000E94F63A1092150280E00E94FACF0E94AB
:104D10009EE56093380C7093390C80933A0C909315
:104D20003B0C0E944D7E81E08093BC030E94E28197
:104D30008AE50E9486CD082F8823A1F081E00E9499
:104D40006C7AF82E82E00E946C7A11E0811101C029
:104D500010E0F11009C088E50E9486CDE82E81118F
:104D600003C0EAC010E0F7CF112309F4DBC0011340
:104D7000E7C0FF24F394EE24E39411E082E50E945F
:104D8000D4CD882319F00E944FCD04C060E070E0BC
:104D900080EA90E46C8F7D8F8E8F9F8F20E030E0D3
:104DA000A9010E94E3F7882359F0E11005C0F11032
:104DB00003C0112309F4A8C0CE014C960E9400D66E
:104DC000EE2019F080E00E94DE7FFF2019F081E0E4
:104DD0000E94DE7F112309F497C083E00E947F7A4E
:104DE000811192C00E94DC7F8091701290917112AB
:104DF000A0917212B091731288A399A3AAA3BBA326
:104E00002091CA0D3091CB0D4091CC0D5091CD0D1C
:104E100060E070E082ED92E40E94F8FE4B015C01DC
:104E20006093850B7093860B8093870B9093880B10
:104E30002091CE0D3091CF0D4091D00D5091D10DDC
:104E400060E070E087E093E40E94F8FE2B013C01F3
:104E50006093890B70938A0B80938B0B90938C0BD0
:104E60002091D20D3091D30D4091D40D5091D50D9C
:104E700068A179A18AA19BA10E94F8FE60938D0B85
:104E800070938E0B80938F0B9093900B27E137EBF1
:104E900041ED58EBC301B2010F94590187FD54C095
:104EA00023E030E047E853E4C301B2010E94E3F796
:104EB00018160CF449C027E137EB41ED58EBC5015A
:104EC000B4010F94590187FD3FC027E030E042E56F
:104ED00053E4C501B4010E94E3F71816ACF119823E
:104EE0001A821B821C82AE014F5F5F4F6A01E8A0ED
:104EF000F9A00AA11BA1A3019201C501B4010E945E
:104F00006C7E82E00E94DE7F0E94DC7F8091BB038A
:104F10008093BC030E94347E83E080935C020E94F5
:104F20002B81E5CE11E089E50E9486CDF82E811710
:104F300009F41DCFE12E06C01123A9F3F12E02C002
:104F4000F12EE12E102F1ACF60E086E395E00E944B
:104F5000A8C90E9456D484E295E00E9469D3D4CFB8
:104F60000E9463A5C4CE0E94F82D0C94291C1092B7
:104F70005F0D109326030E9432D5B9CE88E50E94BA
:104F800086CD81115F9889E50E9486CD81118A982E
:104F90008AE50E9486CD882329F0809108018170DE
:104FA0008093060185E40E9486CD882309F49FCE74
:104FB00012989DCE60E083E795E00E94A8C95F98B3
:104FC0008A988091080181708093060112988FCE93
:104FD0000E943FCDAB01BC0140932B1250932C1289
:104FE00060932D1270932E1286E390E10E94E047A9
:104FF0007ECE83E50E94D4CD882359F00E944FCD08
:105000000F946500CB010E940D9861E080E00E9442
:10501000C7980E9477396BCE83E50E94D4CD882350
:1050200009F465CE0E944FCD0F9465006C38710570
:105030000CF48B011093F20C0093F10C0E948B97EF
:1050400061E080E00E94C79852CE83E50E94D4CDF3
:1050500088A3811106C082E50E94D4CD882309F47B
:1050600046CE0E944FCD0F9465006C3871050CF050
:105070007FC1962F872F9093F10C8093F20C0E94A2
:105080008B9760E081E00E94C7986091F10C70916D
:10509000F20C072E000C880B990B0E94EAF7209166
:1050A000ED0C3091EE0C4091EF0C5091F00C0F9400
:1050B000590118161CF488E596E002C089E496E0D0
:1050C00060E00E94A8C981E08093380218A619A662
:1050D0001AA61BA619AA1AAA1BAA1CAA1EAAFCE396
:1050E000FFAB2CE128AF36E439AFC12CD12CB0E8AE
:1050F000EB2E1FEBF12E1CA241E04DAB812C912C2D
:1051000054016091F10C7091F20C072E000C880B89
:10511000990B0E94EAF7162F072F782E692E960119
:10512000A7010E94E3F7882331F12091ED0C309123
:10513000EE0C4091EF0C5091F00C88A1612F702F74
:10514000811109C0872D962D0E94E3F7881F8827BB
:10515000881F8CA316C0872D962D0E94E3F787FF2A
:105160000FC080913802882309F4C1CD1092380213
:105170000E9432D5BCCD1C2D0D2D7E2C6F2C01C074
:105180001CA20E949EE56B017C01DC01CB0129A9D8
:105190003AA94BA95CA9821B930BA40BB50BB7FDD5
:1051A00033C0D701C60188519C4FAF4FBF4F89AB69
:1051B0009AABABABBCAB80E00E941D9880E092E163
:1051C0000E9469D381149104A104B104B9F0D501FE
:1051D000C401805F984DAF4FBF4FBC01CD016C192A
:1051E0007D098E099F0928EE33E040E050E00E94DF
:1051F00039FECA01B9010E94402D03C08FE30E940D
:10520000CC2C8AE00E94CC2C0E94F82D0E949EE5B6
:105210006093380C7093390C80933A0C90933B0C4C
:105220009091ED0C9CA7A091EE0CADA7B091EF0C66
:10523000BEA7E091F00CEFA7292F3A2F4B2F5E2F3E
:10524000612F702F872D962D0E94F8FE1B012C01D7
:1052500020E030E0A9010F94590187FF04C057FAFC
:10526000509457F8509481149104A104B104E1F4CE
:1052700020E030E040E85FE3C201B1010E94E3F7C3
:1052800087FF1EC0FDA9FF2339F0A5E08A2EADE0FF
:105290009A2EA12CB12C03C0812C912C54018C0C82
:1052A0009D1CAE1CBF1C0CC020E030E040E450E46C
:1052B000C201B1010F945901181614F446015701A7
:1052C0002CA12223C1F188A599A5AAA5BBA5892B4C
:1052D0008A2B8B2B61F0D701C60128A539A54AA5D9
:1052E0005BA5821B930BA40BB50BB7FD24C02CA5AB
:1052F0003DA54EA55FA56EA97FA988AD99AD0E9479
:10530000F8FE20E030E040E85FE30E94E3F787FD2D
:1053100028CFD701C601805A9541AF4FBF4F88A70C
:1053200099A7AAA7BBA79CA59EABADA5AFABBEA5F1
:10533000B8AFEFA5E9AF80913802882309F411CF07
:1053400081149104A104B10431F41DAAC12ED02E00
:10535000E72CF62CD6CEF0E1CF1AF7E2DF0AE1080F
:10536000F108C818D908EA08FB08F7FCEECFF9CE17
:105370009CE880E080CE0E94F63A88E50E9486CDC7
:10538000882331F05F9A8091C90D8E7F8093C90D7B
:1053900089E50E9486CD882331F08A9A8091C90DD3
:1053A0008D7F8093C90D8AE50E9486CD882359F0B0
:1053B0008091080180958170809306018091C90DCC
:1053C0008B7F8093C90D85E40E9486CD882309F4E4
:1053D0008ECC0E94D82B8BCC0E94653C88CC602F51
:1053E00083E50E943BA520C883E50E94D4CD882395
:1053F00091F00E944FCD6093DA0A7093DB0A80939C
:10540000DC0A9093DD0A6093E20A7093E30A8093CA
:10541000E40A9093E50A80E50E94D4CD882351F0F8
:105420000E944FCD6093DA0A7093DB0A8093DC0A06
:105430009093DD0A82E50E94D4CD882351F00E942A
:105440004FCD6093DE0A7093DF0A8093E00A909359
:10545000E10A84E50E94D4CD882309F448CC0E9457
:105460004FCD6093E20A7093E30A8093E40A90932D
:10547000E50A3DCC82E40E9486CD882351F00E944B
:1054800043A16093B60A7093B70A8093B80A9093C9
:10549000B90A83E50E9486CD882351F00E944FCD42
:1054A0006093E60A7093E70A8093E80A9093E90A0A
:1054B00084E50E9486CD882351F00E944FCD6093F1
:1054C000EA0A7093EB0A8093EC0A9093ED0A8AE45F
:1054D0000E9486CD882309F40ACC0E944FCD6B012F
:1054E0007C012AE037ED43E25CE30F94590187FD2C
:1054F00013C02AE939E949E95EE3C701B6010E9410
:10550000E3F718164CF0C092C505D092C605E0929C
:10551000C705F092C805EBCB0E9452D486EC98E008
:105520000E9469D3E4CB0E9452D48BE599E00E949B
:1055300069D3DDCBB7FAB094B7F8B094D7018D92A8
:105540009D92AD92BC92139703CB0E9452D489E9ED
:1055500099E00E9469D361E08BE899E00E94A8C9B4
:105560000E94AC5468E270E088EC90E00E9471C93F
:10557000BECB0C5F1F4FBFEFCB1ADB0AE8E3FCE0AA
:10558000E017F10709F0B5CA8FEBE82E83E0F82E9B
:1055900010E0F10181919191A191B1911F01F70169
:1055A00081939193A193B1937F01812F0E944C7AB3
:1055B0001F5F133071F70E942B8160E08BE799E049
:1055C0000E94A8C963E972E084E690E00E9471C974
:1055D0006AEB72E084E690E00E9471C988CBF0919A
:1055E000CA0DF8A38090CB0D7090CC0D6090CD0DBE
:1055F0005090CE0D4090CF0D3090D00D2090D10D19
:10560000C090D20DD090D30DE090D40DF090D50D78
:1056100088E50E94D4CD882361F10E944FCD5B01C3
:105620008C0120E030E042E553EC0F94590187FDF6
:105630000AC020E030E042E553E4B501C8010E9411
:10564000E3F7181694F462ED70E08CEE99E00E9496
:1056500032D462ED70E087EE99E00E9432D483EBA1
:1056600098E00E9469D310E005C0A8A28B2C702E90
:10567000612E11E089E50E94D4CD882381F10E943A
:105680004FCD962EA72EB82E092F20E030E047E808
:1056900053EC0F94590187FD0CC020E030E047E83F
:1056A00053E4692D7A2D8B2D902F0E94E3F7181665
:1056B00094F46EE071E084ED99E00E9432D46EE0E3
:1056C00071E087EE99E00E9432D483EB98E00E946B
:1056D00069D310E004C0592C4A2C3B2C202E8AE5BB
:1056E0000E94D4CD882339F10E944FCD6B017C01FB
:1056F00020E030E040EA51EC0F94590187FD0AC0E8
:1057000020E030E040EA51E4C701B6010E94E3F72F
:1057100018168CF46CEE7FEF82EC99E00E9432D484
:1057200064E170E087EE99E00E9432D483EB98E068
:105730000E9469D3DCCA112309F4D9CA88A1982D23
:10574000A72DB62D8093CA0D9093CB0DA093CC0DB1
:10575000B093CD0D852D942DA32DB22D8093CE0D1C
:105760009093CF0DA093D00DB093D10DC092D20DD8
:10577000D092D30DE092D40DF092D50DB8CAEA962E
:105780000FB6F894DEBF0FBECDBFDF91CF911F9152
:105790000F91FF90EF90DF90CF90BF90AF909F90D0
:1057A0008F907F906F905F904F903F902F900895D3
:1057B000129A08955F9A8091C90D8E7F8093C90DCA
:1057C0008A9A8091C90D8D7F8093C90D80910801BF
:1057D00080958170809306018091C90D8B7F8093A5
:1057E000C90D0C94D82BCF930E94397AC82F809181
:1057F000C0108093BF108093BE108093BD1084E6CC
:105800008093BC100E94B63980ED93E09093A40A77
:105810008093A30AC1110E94467A81E08093CA0C4A
:105820000E94F63A8EEF0E944C7FCF910C94DC7F61
:1058300090912F1293FB882780F993FF06C081E097
:1058400090913910911101C080E008958091010E6E
:10585000823061F00E94182C882349F080912F1229
:1058600082FB882780F991E08927089581E00895D7
:105870001092E10508958F929F92AF92BF92CF92BE
:10588000DF92EF92FF920F93CF93DF931F92CDB7EA
:10589000DEB75C016B017A014901F50180819181DC
:1058A0000E9413FE8983002311F0F6018083BE015C
:1058B0006F5F7F4FC4010E945CDAF50180819181A6
:1058C000019691838083FFEFCF1ADF0A81E0E81A07
:1058D000F10819F780E00F90DF91CF910F91FF90C1
:1058E000EF90DF90CF90BF90AF909F908F900895F2
:1058F0007F928F929F92AF92BF92CF92DF92EF9260
:10590000FF920F931F93CF93DF931F92CDB7DEB714
:105910007C0159018B016B01C40ED51E0C151D05B0
:1059200059F1F70180809180F80171908F0179829F
:10593000C4010E9413FE781691F0672DC4010E94E5
:105940001BFEC4010E9413FE9981891741F00E9439
:1059500056D484E39AE00E9469D381E00EC0BE0170
:105960006F5F7F4FC5010E945CDAF70180819181F2
:10597000019691838083D2CF80E00F90DF91CF9109
:105980001F910F91FF90EF90DF90CF90BF90AF905D
:105990009F908F907F9008959091C00095FFFCCFCD
:1059A0008093C60008958F929F92AF92BF92EF921C
:1059B000FF920F931F93CF93DF93CDB7DEB7A097DE
:1059C0000FB6F894DEBF0FBECDBF6115710581051E
:1059D000910591F100E0842E912CA12CB12C102F77
:1059E000EE24E394F12CEC0EFD1EE00EF11C07FDFD
:1059F000FA94A50194010E9439FEF7016083B90170
:105A0000CA010F5F611571058105910541F71F3FBF
:105A100031F1E1E0F0E0EC0FFD1FE10FF11D17FDAA
:105A2000FA9580818A3010F097E301C090E3890FE6
:105A30000E94CC2C1150EBCF80E3A0960FB6F894C7
:105A4000DEBF0FBECDBFDF91CF911F910F91FF90B1
:105A5000EF90BF90AF909F908F900C94CC2CA0961D
:105A60000FB6F894DEBF0FBECDBFDF91CF911F916F
:105A70000F91FF90EF90BF90AF909F908F900895FF
:105A8000CF92DF92EF92FF926B017C0197FF0BC0E8
:105A90008DE20E94CC2CF094E094D094C094C11C70
:105AA000D11CE11CF11C4AE0C701B601FF90EF9048
:105AB000DF90CF900C94D32C8F929F92AF92BF9295
:105AC000CF92DF92EF92FF92CF936B017C01B42EC5
:105AD00020E030E0A9010E94E3F787FF07C08DE2D4
